:03000000020AA150
:0C0AA100787FE4F6D8FD7581180208008B
:0909360012086FD2B47F057E00A7
:10093F00E4FDFCC3ED9FEE6480F8EC6480985015E5
:10094F00E4FBFA0BBB00010AEB64644A70F50DBDC2
:05095F0000010C80DE28
:010964002270
:10086F00EF30E004D2808002C280EF30E104D28109
:10087F008002C281EF30E204D2828002C282EF3066
:10088F00E304D2838002C283EF30E404D284800277
:10089F00C284EF30E504D2858002C285EF30E604D2
:1008AF00D2868002C286EF30E703D28722C2872228
:070A92007E0012093F7F30D6
:080A9900C2B3120936C2B422F7
:050AD3007F01020A99F9
:100A65008F0BA905E50BB40105E924808008E50B8A
:0B0A7500B40207E924C0FF120A992216
:100A1300E4FF12086FC2B37FC8120A927F32120A30
:100A2300927F6E120A927F38120A997F0C120A99EA
:0A0A33007F01120A997F06020A995A
:080ACB00D2B3120936C2B422B5
:060992008B0B8A0C890D9D
:10099800E4F50EF50FAB0BAA0CA90D850F82850E99
:1009A80083120965FF600D120ACB050FE50F70E58C
:0409B800050E80E1C7
:0109BC002218
:050AD8007F1C020A99D9
:050ADD007F18020A99D8
:100A3D00EF30E004D2848002C284EF30E104D2852D
:100A4D008002C285EF30E204D2868002C286EF308A
:080A5D00E303D28722C28722C5
:070A80007E0012093F7F0315
:0B0A8700C2B3120A3D120939C2B422AA
:0A0AAD00E4FF120A877F01020A87A6
:0408BF008F15A905E3
:1008C300E515B40112E92480FFF5167804A2E713B5
:1008D300D8FBF517EF8016E515B4021FE92480F560
:1008E300167804A2E713D8FBF517E924C0540FF5D3
:0B08F30018AF17120A87AF18120A870F
:0108FE0022D7
:1008FF00E4FF120A3D7FC8120A807F32120A807FFE
:10090F006E120A807F02120A877F02120A877F08FF
:10091F00120A87E4FF120A877F0C120A87E4FF127C
:07092F000A877F06020A8718
:0209BD00AE0783
:1009BF00EE540FF9EE54F0FFD2B37804A2E713D838
:1009CF00FBFF120A3D120939C2B4AF01120A3DD220
:0809DF00B47F0512093FC2B408
:0109E70022ED
:0609E8008B108A11891238
:1009EE00E4F513F514AB10AA11A912851482851320
:1009FE0083120965FF600D1209BD0514E51470E53B
:040A0E00051380E16B
:010A120022C1
:0A0AB7007F01120A877F0C020A87F4
:0A0AC1007F01120A877F08020A87EE
:10080000750800750900750A31E4F5B0F590120A13
:10081000137F647E0012093F7D017F01120A65ABE0
:1008200008AA09A90A12099230B21120B00ED2907A
:10083000C291D292C293D294D29580EC30B00B2068
:10084000B208C290D291D292800F30B01430B11160
:1008500030B20ED290D291C292D293D294C29580ED
:0F086000C7D290D291D292C293D294C29580B94E
:10096500BB010CE58229F582E5833AF583E0225047
:1009750006E92582F8E622BBFE06E92582F8E22291
:0D098500E58229F582E5833AF583E49322AB
:00000001FF
