:03000000020A559C
:0C0A5500787FE4F6D8FD7581160209F6E2
:020A9600550009
:0908C700120800D2A67F057E0094
:1008D000E4FDFCC3ED9FEE6480F8EC648098501555
:1008E000E4FBFA0BBB00010AEB64644A70F50DBD32
:0508F00000010C80DE98
:0108F50022E0
:10080000EF30E004D2908002C290EF30E104D29148
:100810008002C291EF30E204D2928002C292EF30A5
:10082000E304D2938002C293EF30E404D2948002B6
:10083000C294EF30E504D2958002C295EF30E60411
:10084000D2968002C296EF30E703D29722C2972257
:070A46007E001208D07F3092
:080A4D00C2A71208C7C2A622CD
:050A87007F01020A4D91
:100A19008F16A905E516B40105E924808008E516B5
:0B0A2900B40207E924C0FF120A4D22AE
:1009A400E4FF120800C2A77FC8120A467F32120A67
:1009B400467F6E120A467F38120A4D7F0C120A4D8A
:0A09C4007F01120A4D7F06020A4D62
:080A7F00D2A71208C7C2A6228B
:060923008B088A09890A15
:10092900E4F50BF50CAB08AA09A90A850C82850B1D
:10093900831208F6FF600D120A7F050CE50C70E5BD
:04094900050B80E139
:01094D002287
:050A8C007F1C020A4D71
:050A91007F18020A4D70
:1009CE00EF30E004D2948002C294EF30E104D2956D
:1009DE008002C295EF30E204D2968002C296EF30CA
:0809EE00E303D29722C2972215
:070A34007E001208D07F03D1
:0B0A3B00C2A71209CE1208CAC2A622F0
:0A0A6100E4FF120A3B7F01020A3B8A
:040850008F12A90555
:10085400E512B40112E92480FFF5137804A2E7132A
:10086400D8FBF514EF8016E512B4021FE92480F5D5
:10087400137804A2E713D8FBF514E924C0540FF548
:0B08840015AF14120A3BAF15120A3B1F
:01088F002246
:10089000E4FF1209CE7FC8120A347F32120A347F75
:1008A0006E120A347F02120A3B7F02120A3B7F0853
:1008B000120A3BE4FF120A3B7F0C120A3BE4FF12D0
:0708C0000A3B7F06020A3B20
:02094E00AE07F2
:10095000EE540FF9EE54F0FFD2A77804A2E713D8B3
:10096000FBFF1209CE1208CAC2A6AF011209CED2ED
:08097000A67F051208D0C2A603
:01097800225C
:060979008B0D8A0E890FB0
:10097F00E4F510F511AB0DAA0EA90F8511828510A4
:10098F00831208F6FF600D12094E0511E51170E58F
:04099F00051080E1DE
:0109A3002231
:0A0A6B007F01120A3B7F0C020A3BD8
:0A0A75007F01120A3B7F08020A3BD2
:1009F6001209A47D017F01120A197F96120A7FD27D
:100A0600B1C2B27F647E001208D0C2B1D2B212085F
:030A1600D080ECA1
:1008F600BB010CE58229F582E5833AF583E02250B7
:1009060006E92582F8E622BBFE06E92582F8E22200
:0D091600E58229F582E5833AF583E493221A
:00000001FF
