:10080000E4FDFCFEAFA0D2B10DBD00010CBC27F889
:10081000BD10F5C2B0E4FCFD0DBD00010CBC27F815
:10082000BD10F5D2B0E4FCFD0DBD00010CBC27F8F5
:10083000BD10F530B2030208DAC297C3EF948BEE15
:10084000648094804014C2B7D2B6D2B5D290D2910F
:10085000D292C293C294D2958066C3EF9449EE645B
:1008600080948040047B0180027B00C3EF948BEE78
:100870006480948050047A0180027A00EA5B600808
:10088000D2B7C2B6D2B5802CC3EF9433EE64809455
:100890008040047B0180027B00C3EF9449EE6480BA
:1008A000948050047A0180027A00EA5B6012D2B729
:1008B000D2B6C2B5D290D291D292C293D294C295FE
:1008C000C2B1E4FCFDC3ED9410EC648094A7400336
:0C08D0000208330DBD00010C80EBD29734
:0108DC0022F9
:030000000208DD16
:0C08DD00787FE4F6D8FD75810702080062
:00000001FF
